{
  "_format": "hh-sol-artifact-1",
  "contractName": "FraudRegistry",
  "sourceName": "contracts/FraudRegistry.sol",
  "abi": [
    {
      "anonymous": false,
      "inputs": [
        {
          "indexed": true,
          "internalType": "address",
          "name": "suspect",
          "type": "address"
        },
        {
          "indexed": false,
          "internalType": "uint256",
          "name": "reportId",
          "type": "uint256"
        },
        {
          "indexed": false,
          "internalType": "uint256",
          "name": "timestamp",
          "type": "uint256"
        }
      ],
      "name": "NewFraudReport",
      "type": "event"
    },
    {
      "inputs": [],
      "name": "getAllSuspects",
      "outputs": [
        {
          "internalType": "address[]",
          "name": "",
          "type": "address[]"
        }
      ],
      "stateMutability": "view",
      "type": "function"
    },
    {
      "inputs": [
        {
          "internalType": "uint256",
          "name": "_reportId",
          "type": "uint256"
        }
      ],
      "name": "getReport",
      "outputs": [
        {
          "components": [
            {
              "internalType": "address",
              "name": "reporter",
              "type": "address"
            },
            {
              "internalType": "address",
              "name": "suspect",
              "type": "address"
            },
            {
              "internalType": "bytes32",
              "name": "evidenceHash",
              "type": "bytes32"
            },
            {
              "internalType": "string",
              "name": "description",
              "type": "string"
            },
            {
              "internalType": "uint256",
              "name": "timestamp",
              "type": "uint256"
            },
            {
              "internalType": "bool",
              "name": "verified",
              "type": "bool"
            }
          ],
          "internalType": "struct FraudRegistry.FraudReport",
          "name": "",
          "type": "tuple"
        }
      ],
      "stateMutability": "view",
      "type": "function"
    },
    {
      "inputs": [
        {
          "internalType": "address",
          "name": "_suspect",
          "type": "address"
        }
      ],
      "name": "getReportCountBySuspect",
      "outputs": [
        {
          "internalType": "uint256",
          "name": "",
          "type": "uint256"
        }
      ],
      "stateMutability": "view",
      "type": "function"
    },
    {
      "inputs": [
        {
          "internalType": "address",
          "name": "_suspect",
          "type": "address"
        }
      ],
      "name": "getReportsBySuspect",
      "outputs": [
        {
          "components": [
            {
              "internalType": "address",
              "name": "reporter",
              "type": "address"
            },
            {
              "internalType": "address",
              "name": "suspect",
              "type": "address"
            },
            {
              "internalType": "bytes32",
              "name": "evidenceHash",
              "type": "bytes32"
            },
            {
              "internalType": "string",
              "name": "description",
              "type": "string"
            },
            {
              "internalType": "uint256",
              "name": "timestamp",
              "type": "uint256"
            },
            {
              "internalType": "bool",
              "name": "verified",
              "type": "bool"
            }
          ],
          "internalType": "struct FraudRegistry.FraudReport[]",
          "name": "",
          "type": "tuple[]"
        }
      ],
      "stateMutability": "view",
      "type": "function"
    },
    {
      "inputs": [],
      "name": "getTotalReports",
      "outputs": [
        {
          "internalType": "uint256",
          "name": "",
          "type": "uint256"
        }
      ],
      "stateMutability": "view",
      "type": "function"
    },
    {
      "inputs": [
        {
          "internalType": "uint256",
          "name": "",
          "type": "uint256"
        }
      ],
      "name": "reports",
      "outputs": [
        {
          "internalType": "address",
          "name": "reporter",
          "type": "address"
        },
        {
          "internalType": "address",
          "name": "suspect",
          "type": "address"
        },
        {
          "internalType": "bytes32",
          "name": "evidenceHash",
          "type": "bytes32"
        },
        {
          "internalType": "string",
          "name": "description",
          "type": "string"
        },
        {
          "internalType": "uint256",
          "name": "timestamp",
          "type": "uint256"
        },
        {
          "internalType": "bool",
          "name": "verified",
          "type": "bool"
        }
      ],
      "stateMutability": "view",
      "type": "function"
    },
    {
      "inputs": [
        {
          "internalType": "address",
          "name": "",
          "type": "address"
        },
        {
          "internalType": "uint256",
          "name": "",
          "type": "uint256"
        }
      ],
      "name": "reportsBySuspect",
      "outputs": [
        {
          "internalType": "uint256",
          "name": "",
          "type": "uint256"
        }
      ],
      "stateMutability": "view",
      "type": "function"
    },
    {
      "inputs": [
        {
          "internalType": "address",
          "name": "_suspect",
          "type": "address"
        },
        {
          "internalType": "bytes32",
          "name": "_evidenceHash",
          "type": "bytes32"
        },
        {
          "internalType": "string",
          "name": "_description",
          "type": "string"
        }
      ],
      "name": "submitReport",
      "outputs": [],
      "stateMutability": "nonpayable",
      "type": "function"
    }
  ],
  "bytecode": "0x608060405234801561001057600080fd5b50611991806100206000396000f3fe608060405234801561001057600080fd5b50600436106100885760003560e01c8063d19cfd301161005b578063d19cfd301461013e578063d4e995001461015c578063d585e7721461017a578063f328b8b8146101aa57610088565b80634e7f9b191461008d578063718c0f01146100bd578063b4d04d79146100d9578063c942adf714610109575b600080fd5b6100a760048036038101906100a29190610d14565b6101da565b6040516100b49190610ede565b60405180910390f35b6100d760048036038101906100d2919061108d565b6103ca565b005b6100f360048036038101906100ee91906110fc565b610742565b604051610100919061114b565b60405180910390f35b610123600480360381019061011e9190610d14565b610773565b604051610135969594939291906111dd565b60405180910390f35b610146610894565b60405161015391906112f4565b60405180910390f35b610164610922565b604051610171919061114b565b60405180910390f35b610194600480360381019061018f9190611316565b61092e565b6040516101a1919061148e565b60405180910390f35b6101c460048036038101906101bf9190611316565b610c17565b6040516101d1919061114b565b60405180910390f35b6101e2610c63565b6000805490508210610229576040517f08c379a0000000000000000000000000000000000000000000000000000000008152600401610220906114fc565b60405180910390fd5b6000828154811061023d5761023c61151c565b5b90600052602060002090600602016040518060c00160405290816000820160009054906101000a900473ffffffffffffffffffffffffffffffffffffffff1673ffffffffffffffffffffffffffffffffffffffff1673ffffffffffffffffffffffffffffffffffffffff1681526020016001820160009054906101000a900473ffffffffffffffffffffffffffffffffffffffff1673ffffffffffffffffffffffffffffffffffffffff1673ffffffffffffffffffffffffffffffffffffffff1681526020016002820154815260200160038201805461031c9061157a565b80601f01602080910402602001604051908101604052809291908181526020018280546103489061157a565b80156103955780601f1061036a57610100808354040283529160200191610395565b820191906000526020600020905b81548152906001019060200180831161037857829003601f168201915b50505050508152602001600482015481526020016005820160009054906101000a900460ff1615151515815250509050919050565b60c88151111561040f576040517f08c379a00000000000000000000000000000000000000000000000000000000081526004016104069061161d565b60405180910390fd5b60008080549050905060006040518060c001604052803373ffffffffffffffffffffffffffffffffffffffff1681526020018673ffffffffffffffffffffffffffffffffffffffff16815260200185815260200184815260200142815260200160001515815250908060018154018082558091505060019003906000526020600020906006020160009091909190915060008201518160000160006101000a81548173ffffffffffffffffffffffffffffffffffffffff021916908373ffffffffffffffffffffffffffffffffffffffff16021790555060208201518160010160006101000a81548173ffffffffffffffffffffffffffffffffffffffff021916908373ffffffffffffffffffffffffffffffffffffffff16021790555060408201518160020155606082015181600301908161054c91906117e9565b506080820151816004015560a08201518160050160006101000a81548160ff0219169083151502179055505050600160008573ffffffffffffffffffffffffffffffffffffffff1673ffffffffffffffffffffffffffffffffffffffff168152602001908152602001600020819080600181540180825580915050600190039060005260206000200160009091909190915055600360008573ffffffffffffffffffffffffffffffffffffffff1673ffffffffffffffffffffffffffffffffffffffff16815260200190815260200160002060009054906101000a900460ff166106ec576002849080600181540180825580915050600190039060005260206000200160009091909190916101000a81548173ffffffffffffffffffffffffffffffffffffffff021916908373ffffffffffffffffffffffffffffffffffffffff1602179055506001600360008673ffffffffffffffffffffffffffffffffffffffff1673ffffffffffffffffffffffffffffffffffffffff16815260200190815260200160002060006101000a81548160ff0219169083151502179055505b8373ffffffffffffffffffffffffffffffffffffffff167fca9674de73d4a2e931984eaf7aebcb706c87a9aa22b88f2f81da3d62343684a682426040516107349291906118bb565b60405180910390a250505050565b6001602052816000526040600020818154811061075e57600080fd5b90600052602060002001600091509150505481565b6000818154811061078357600080fd5b90600052602060002090600602016000915090508060000160009054906101000a900473ffffffffffffffffffffffffffffffffffffffff16908060010160009054906101000a900473ffffffffffffffffffffffffffffffffffffffff16908060020154908060030180546107f89061157a565b80601f01602080910402602001604051908101604052809291908181526020018280546108249061157a565b80156108715780601f1061084657610100808354040283529160200191610871565b820191906000526020600020905b81548152906001019060200180831161085457829003601f168201915b5050505050908060040154908060050160009054906101000a900460ff16905086565b6060600280548060200260200160405190810160405280929190818152602001828054801561091857602002820191906000526020600020905b8160009054906101000a900473ffffffffffffffffffffffffffffffffffffffff1673ffffffffffffffffffffffffffffffffffffffff16815260200190600101908083116108ce575b5050505050905090565b60008080549050905090565b60606000600160008473ffffffffffffffffffffffffffffffffffffffff1673ffffffffffffffffffffffffffffffffffffffff1681526020019081526020016000208054806020026020016040519081016040528092919081815260200182805480156109bb57602002820191906000526020600020905b8154815260200190600101908083116109a7575b505050505090506000815167ffffffffffffffff8111156109df576109de610f62565b5b604051908082528060200260200182016040528015610a1857816020015b610a05610c63565b8152602001906001900390816109fd5790505b50905060005b8251811015610c0c576000838281518110610a3c57610a3b61151c565b5b602002602001015181548110610a5557610a5461151c565b5b90600052602060002090600602016040518060c00160405290816000820160009054906101000a900473ffffffffffffffffffffffffffffffffffffffff1673ffffffffffffffffffffffffffffffffffffffff1673ffffffffffffffffffffffffffffffffffffffff1681526020016001820160009054906101000a900473ffffffffffffffffffffffffffffffffffffffff1673ffffffffffffffffffffffffffffffffffffffff1673ffffffffffffffffffffffffffffffffffffffff16815260200160028201548152602001600382018054610b349061157a565b80601f0160208091040260200160405190810160405280929190818152602001828054610b609061157a565b8015610bad5780601f10610b8257610100808354040283529160200191610bad565b820191906000526020600020905b815481529060010190602001808311610b9057829003601f168201915b50505050508152602001600482015481526020016005820160009054906101000a900460ff161515151581525050828281518110610bee57610bed61151c565b5b60200260200101819052508080610c0490611913565b915050610a1e565b508092505050919050565b6000600160008373ffffffffffffffffffffffffffffffffffffffff1673ffffffffffffffffffffffffffffffffffffffff168152602001908152602001600020805490509050919050565b6040518060c00160405280600073ffffffffffffffffffffffffffffffffffffffff168152602001600073ffffffffffffffffffffffffffffffffffffffff1681526020016000801916815260200160608152602001600081526020016000151581525090565b6000604051905090565b600080fd5b600080fd5b6000819050919050565b610cf181610cde565b8114610cfc57600080fd5b50565b600081359050610d0e81610ce8565b92915050565b600060208284031215610d2a57610d29610cd4565b5b6000610d3884828501610cff565b91505092915050565b600073ffffffffffffffffffffffffffffffffffffffff82169050919050565b6000610d6c82610d41565b9050919050565b610d7c81610d61565b82525050565b6000819050919050565b610d9581610d82565b82525050565b600081519050919050565b600082825260208201905092915050565b60005b83811015610dd5578082015181840152602081019050610dba565b60008484015250505050565b6000601f19601f8301169050919050565b6000610dfd82610d9b565b610e078185610da6565b9350610e17818560208601610db7565b610e2081610de1565b840191505092915050565b610e3481610cde565b82525050565b60008115159050919050565b610e4f81610e3a565b82525050565b600060c083016000830151610e6d6000860182610d73565b506020830151610e806020860182610d73565b506040830151610e936040860182610d8c565b5060608301518482036060860152610eab8282610df2565b9150506080830151610ec06080860182610e2b565b5060a0830151610ed360a0860182610e46565b508091505092915050565b60006020820190508181036000830152610ef88184610e55565b905092915050565b610f0981610d61565b8114610f1457600080fd5b50565b600081359050610f2681610f00565b92915050565b610f3581610d82565b8114610f4057600080fd5b50565b600081359050610f5281610f2c565b92915050565b600080fd5b600080fd5b7f4e487b7100000000000000000000000000000000000000000000000000000000600052604160045260246000fd5b610f9a82610de1565b810181811067ffffffffffffffff82111715610fb957610fb8610f62565b5b80604052505050565b6000610fcc610cca565b9050610fd88282610f91565b919050565b600067ffffffffffffffff821115610ff857610ff7610f62565b5b61100182610de1565b9050602081019050919050565b82818337600083830152505050565b600061103061102b84610fdd565b610fc2565b90508281526020810184848401111561104c5761104b610f5d565b5b61105784828561100e565b509392505050565b600082601f83011261107457611073610f58565b5b813561108484826020860161101d565b91505092915050565b6000806000606084860312156110a6576110a5610cd4565b5b60006110b486828701610f17565b93505060206110c586828701610f43565b925050604084013567ffffffffffffffff8111156110e6576110e5610cd9565b5b6110f28682870161105f565b9150509250925092565b6000806040838503121561111357611112610cd4565b5b600061112185828601610f17565b925050602061113285828601610cff565b9150509250929050565b61114581610cde565b82525050565b6000602082019050611160600083018461113c565b92915050565b61116f81610d61565b82525050565b61117e81610d82565b82525050565b600082825260208201905092915050565b60006111a082610d9b565b6111aa8185611184565b93506111ba818560208601610db7565b6111c381610de1565b840191505092915050565b6111d781610e3a565b82525050565b600060c0820190506111f26000830189611166565b6111ff6020830188611166565b61120c6040830187611175565b818103606083015261121e8186611195565b905061122d608083018561113c565b61123a60a08301846111ce565b979650505050505050565b600081519050919050565b600082825260208201905092915050565b6000819050602082019050919050565b600061127d8383610d73565b60208301905092915050565b6000602082019050919050565b60006112a182611245565b6112ab8185611250565b93506112b683611261565b8060005b838110156112e75781516112ce8882611271565b97506112d983611289565b9250506001810190506112ba565b5085935050505092915050565b6000602082019050818103600083015261130e8184611296565b905092915050565b60006020828403121561132c5761132b610cd4565b5b600061133a84828501610f17565b91505092915050565b600081519050919050565b600082825260208201905092915050565b6000819050602082019050919050565b600060c0830160008301516113876000860182610d73565b50602083015161139a6020860182610d73565b5060408301516113ad6040860182610d8c565b50606083015184820360608601526113c58282610df2565b91505060808301516113da6080860182610e2b565b5060a08301516113ed60a0860182610e46565b508091505092915050565b6000611404838361136f565b905092915050565b6000602082019050919050565b600061142482611343565b61142e818561134e565b9350836020820285016114408561135f565b8060005b8581101561147c578484038952815161145d85826113f8565b94506114688361140c565b925060208a01995050600181019050611444565b50829750879550505050505092915050565b600060208201905081810360008301526114a88184611419565b905092915050565b7f5265706f727420646f6573206e6f742065786973740000000000000000000000600082015250565b60006114e6601583611184565b91506114f1826114b0565b602082019050919050565b60006020820190508181036000830152611515816114d9565b9050919050565b7f4e487b7100000000000000000000000000000000000000000000000000000000600052603260045260246000fd5b7f4e487b7100000000000000000000000000000000000000000000000000000000600052602260045260246000fd5b6000600282049050600182168061159257607f821691505b6020821081036115a5576115a461154b565b5b50919050565b7f4465736372697074696f6e20746f6f206c6f6e6720286d61782032303020636860008201527f6172732900000000000000000000000000000000000000000000000000000000602082015250565b6000611607602483611184565b9150611612826115ab565b604082019050919050565b60006020820190508181036000830152611636816115fa565b9050919050565b60008190508160005260206000209050919050565b60006020601f8301049050919050565b600082821b905092915050565b60006008830261169f7fffffffffffffffffffffffffffffffffffffffffffffffffffffffffffffffff82611662565b6116a98683611662565b95508019841693508086168417925050509392505050565b6000819050919050565b60006116e66116e16116dc84610cde565b6116c1565b610cde565b9050919050565b6000819050919050565b611700836116cb565b61171461170c826116ed565b84845461166f565b825550505050565b600090565b61172961171c565b6117348184846116f7565b505050565b5b818110156117585761174d600082611721565b60018101905061173a565b5050565b601f82111561179d5761176e8161163d565b61177784611652565b81016020851015611786578190505b61179a61179285611652565b830182611739565b50505b505050565b600082821c905092915050565b60006117c0600019846008026117a2565b1980831691505092915050565b60006117d983836117af565b9150826002028217905092915050565b6117f282610d9b565b67ffffffffffffffff81111561180b5761180a610f62565b5b611815825461157a565b61182082828561175c565b600060209050601f8311600181146118535760008415611841578287015190505b61184b85826117cd565b8655506118b3565b601f1984166118618661163d565b60005b8281101561188957848901518255600182019150602085019450602081019050611864565b868310156118a657848901516118a2601f8916826117af565b8355505b6001600288020188555050505b505050505050565b60006040820190506118d0600083018561113c565b6118dd602083018461113c565b9392505050565b7f4e487b7100000000000000000000000000000000000000000000000000000000600052601160045260246000fd5b600061191e82610cde565b91507fffffffffffffffffffffffffffffffffffffffffffffffffffffffffffffffff82036119505761194f6118e4565b5b60018201905091905056fea2646970667358221220d198d59f96462b66166b1abc82a4b03fb508098bdfc3e92ad5ba7c47fc57649364736f6c63430008140033",
  "linkReferences": {},
  "deployedLinkReferences": {}
}