{
  "_format": "hh-sol-artifact-1",
  "contractName": "VoiceVault",
  "sourceName": "contracts/VoiceVault.sol",
  "abi": [
    {
      "anonymous": false,
      "inputs": [
        {
          "indexed": true,
          "internalType": "address",
          "name": "reporter",
          "type": "address"
        },
        {
          "indexed": true,
          "internalType": "address",
          "name": "suspect",
          "type": "address"
        },
        {
          "indexed": false,
          "internalType": "bytes32",
          "name": "evidenceHash",
          "type": "bytes32"
        }
      ],
      "name": "FraudReported",
      "type": "event"
    },
    {
      "anonymous": false,
      "inputs": [
        {
          "indexed": true,
          "internalType": "address",
          "name": "user",
          "type": "address"
        },
        {
          "indexed": false,
          "internalType": "uint256",
          "name": "timestamp",
          "type": "uint256"
        }
      ],
      "name": "VoiceRegistered",
      "type": "event"
    },
    {
      "anonymous": false,
      "inputs": [
        {
          "indexed": true,
          "internalType": "address",
          "name": "user",
          "type": "address"
        },
        {
          "indexed": false,
          "internalType": "uint256",
          "name": "timestamp",
          "type": "uint256"
        }
      ],
      "name": "VoiceRevoked",
      "type": "event"
    },
    {
      "anonymous": false,
      "inputs": [
        {
          "indexed": true,
          "internalType": "address",
          "name": "user",
          "type": "address"
        },
        {
          "indexed": false,
          "internalType": "uint256",
          "name": "timestamp",
          "type": "uint256"
        }
      ],
      "name": "VoiceUpdated",
      "type": "event"
    },
    {
      "inputs": [],
      "name": "getFlaggedAddresses",
      "outputs": [
        {
          "internalType": "address[]",
          "name": "",
          "type": "address[]"
        }
      ],
      "stateMutability": "view",
      "type": "function"
    },
    {
      "inputs": [],
      "name": "getRegisteredCount",
      "outputs": [
        {
          "internalType": "uint256",
          "name": "",
          "type": "uint256"
        }
      ],
      "stateMutability": "view",
      "type": "function"
    },
    {
      "inputs": [
        {
          "internalType": "address",
          "name": "_user",
          "type": "address"
        }
      ],
      "name": "getVoiceProfile",
      "outputs": [
        {
          "internalType": "bytes",
          "name": "helperString",
          "type": "bytes"
        },
        {
          "internalType": "bytes32",
          "name": "commitment",
          "type": "bytes32"
        },
        {
          "internalType": "bytes32",
          "name": "salt",
          "type": "bytes32"
        },
        {
          "internalType": "uint256",
          "name": "registeredAt",
          "type": "uint256"
        },
        {
          "internalType": "bool",
          "name": "isActive",
          "type": "bool"
        }
      ],
      "stateMutability": "view",
      "type": "function"
    },
    {
      "inputs": [
        {
          "internalType": "address",
          "name": "",
          "type": "address"
        }
      ],
      "name": "isRegistered",
      "outputs": [
        {
          "internalType": "bool",
          "name": "",
          "type": "bool"
        }
      ],
      "stateMutability": "view",
      "type": "function"
    },
    {
      "inputs": [
        {
          "internalType": "bytes",
          "name": "_helperString",
          "type": "bytes"
        },
        {
          "internalType": "bytes32",
          "name": "_commitment",
          "type": "bytes32"
        },
        {
          "internalType": "bytes32",
          "name": "_salt",
          "type": "bytes32"
        }
      ],
      "name": "registerVoice",
      "outputs": [],
      "stateMutability": "nonpayable",
      "type": "function"
    },
    {
      "inputs": [
        {
          "internalType": "address",
          "name": "_suspect",
          "type": "address"
        },
        {
          "internalType": "bytes32",
          "name": "_evidenceHash",
          "type": "bytes32"
        }
      ],
      "name": "reportFraud",
      "outputs": [],
      "stateMutability": "nonpayable",
      "type": "function"
    },
    {
      "inputs": [],
      "name": "revokeVoice",
      "outputs": [],
      "stateMutability": "nonpayable",
      "type": "function"
    },
    {
      "inputs": [
        {
          "internalType": "bytes",
          "name": "_newHelper",
          "type": "bytes"
        },
        {
          "internalType": "bytes32",
          "name": "_newCommitment",
          "type": "bytes32"
        },
        {
          "internalType": "bytes32",
          "name": "_newSalt",
          "type": "bytes32"
        }
      ],
      "name": "updateVoice",
      "outputs": [],
      "stateMutability": "nonpayable",
      "type": "function"
    },
    {
      "inputs": [
        {
          "internalType": "address",
          "name": "",
          "type": "address"
        }
      ],
      "name": "voiceProfiles",
      "outputs": [
        {
          "internalType": "bytes",
          "name": "helperString",
          "type": "bytes"
        },
        {
          "internalType": "bytes32",
          "name": "commitment",
          "type": "bytes32"
        },
        {
          "internalType": "bytes32",
          "name": "salt",
          "type": "bytes32"
        },
        {
          "internalType": "uint256",
          "name": "registeredAt",
          "type": "uint256"
        },
        {
          "internalType": "uint256",
          "name": "updatedAt",
          "type": "uint256"
        },
        {
          "internalType": "bool",
          "name": "isActive",
          "type": "bool"
        },
        {
          "internalType": "uint256",
          "name": "reportCount",
          "type": "uint256"
        }
      ],
      "stateMutability": "view",
      "type": "function"
    }
  ],
  "bytecode": "0x608060405234801561001057600080fd5b50611b20806100206000396000f3fe608060405234801561001057600080fd5b50600436106100925760003560e01c8063669da90311610066578063669da903146101275780637ccd134a1461014357806386a699351461016157806396fc45bf1461017f578063c3c5a5471461019b57610092565b8062cedd631461009757806332bec93b146100cb57806341cf3b20146100d5578063519ace16146100f1575b600080fd5b6100b160048036038101906100ac9190610f8c565b6101cb565b6040516100c2959493929190611096565b60405180910390f35b6100d3610366565b005b6100ef60048036038101906100ea919061111c565b610570565b005b61010b60048036038101906101069190610f8c565b6106bc565b60405161011e979695949392919061115c565b60405180910390f35b610141600480360381019061013c9190611307565b610793565b005b61014b610ab6565b6040516101589190611434565b60405180910390f35b610169610d10565b6040516101769190611456565b60405180910390f35b61019960048036038101906101949190611307565b610d1d565b005b6101b560048036038101906101b09190610f8c565b610efa565b6040516101c29190611471565b60405180910390f35b6060600080600080600160008773ffffffffffffffffffffffffffffffffffffffff1673ffffffffffffffffffffffffffffffffffffffff16815260200190815260200160002060009054906101000a900460ff1661025f576040517f08c379a0000000000000000000000000000000000000000000000000000000008152600401610256906114e9565b60405180910390fd5b60008060008873ffffffffffffffffffffffffffffffffffffffff1673ffffffffffffffffffffffffffffffffffffffff1681526020019081526020016000209050806000018160010154826002015483600301548460050160009054906101000a900460ff168480546102d290611538565b80601f01602080910402602001604051908101604052809291908181526020018280546102fe90611538565b801561034b5780601f106103205761010080835404028352916020019161034b565b820191906000526020600020905b81548152906001019060200180831161032e57829003601f168201915b50505050509450955095509550955095505091939590929450565b600160003373ffffffffffffffffffffffffffffffffffffffff1673ffffffffffffffffffffffffffffffffffffffff16815260200190815260200160002060009054906101000a900460ff166103f2576040517f08c379a00000000000000000000000000000000000000000000000000000000081526004016103e9906115b5565b60405180910390fd5b6000803373ffffffffffffffffffffffffffffffffffffffff1673ffffffffffffffffffffffffffffffffffffffff16815260200190815260200160002060050160009054906101000a900460ff16610480576040517f08c379a000000000000000000000000000000000000000000000000000000000815260040161047790611621565b60405180910390fd5b60008060003373ffffffffffffffffffffffffffffffffffffffff1673ffffffffffffffffffffffffffffffffffffffff16815260200190815260200160002060050160006101000a81548160ff021916908315150217905550426000803373ffffffffffffffffffffffffffffffffffffffff1673ffffffffffffffffffffffffffffffffffffffff168152602001908152602001600020600401819055503373ffffffffffffffffffffffffffffffffffffffff167f1447b88fbd47d69ea59158cb543bba463fc8b12f385ca26ecd3f4aeb8f328364426040516105669190611456565b60405180910390a2565b600160008373ffffffffffffffffffffffffffffffffffffffff1673ffffffffffffffffffffffffffffffffffffffff16815260200190815260200160002060009054906101000a900460ff166105fc576040517f08c379a00000000000000000000000000000000000000000000000000000000081526004016105f39061168d565b60405180910390fd5b6000808373ffffffffffffffffffffffffffffffffffffffff1673ffffffffffffffffffffffffffffffffffffffff168152602001908152602001600020600601600081548092919061064e906116dc565b91905055508173ffffffffffffffffffffffffffffffffffffffff163373ffffffffffffffffffffffffffffffffffffffff167f6141fe9a0f878c7ee5b2b9d620835c4f80a9e65e091fe65afae79c9adc43e218836040516106b09190611724565b60405180910390a35050565b60006020528060005260406000206000915090508060000180546106df90611538565b80601f016020809104026020016040519081016040528092919081815260200182805461070b90611538565b80156107585780601f1061072d57610100808354040283529160200191610758565b820191906000526020600020905b81548152906001019060200180831161073b57829003601f168201915b5050505050908060010154908060020154908060030154908060040154908060050160009054906101000a900460ff16908060060154905087565b600160003373ffffffffffffffffffffffffffffffffffffffff1673ffffffffffffffffffffffffffffffffffffffff16815260200190815260200160002060009054906101000a900460ff16158061083857506000803373ffffffffffffffffffffffffffffffffffffffff1673ffffffffffffffffffffffffffffffffffffffff16815260200190815260200160002060050160009054906101000a900460ff16155b610877576040517f08c379a000000000000000000000000000000000000000000000000000000000815260040161086e906117b1565b60405180910390fd5b6040518060e0016040528084815260200183815260200182815260200142815260200142815260200160011515815260200160008152506000803373ffffffffffffffffffffffffffffffffffffffff1673ffffffffffffffffffffffffffffffffffffffff1681526020019081526020016000206000820151816000019081610901919061197d565b506020820151816001015560408201518160020155606082015181600301556080820151816004015560a08201518160050160006101000a81548160ff02191690831515021790555060c08201518160060155905050600160003373ffffffffffffffffffffffffffffffffffffffff1673ffffffffffffffffffffffffffffffffffffffff16815260200190815260200160002060009054906101000a900460ff16610a635760018060003373ffffffffffffffffffffffffffffffffffffffff1673ffffffffffffffffffffffffffffffffffffffff16815260200190815260200160002060006101000a81548160ff0219169083151502179055506002339080600181540180825580915050600190039060005260206000200160009091909190916101000a81548173ffffffffffffffffffffffffffffffffffffffff021916908373ffffffffffffffffffffffffffffffffffffffff1602179055505b3373ffffffffffffffffffffffffffffffffffffffff167f3517d4d79d31088077363c3ecf7d271df59bebeaa36a1929696ebcafce9fddf742604051610aa99190611456565b60405180910390a2505050565b60606000805b600280549050811015610b7257600360008060028481548110610ae257610ae1611a4f565b5b9060005260206000200160009054906101000a900473ffffffffffffffffffffffffffffffffffffffff1673ffffffffffffffffffffffffffffffffffffffff1673ffffffffffffffffffffffffffffffffffffffff1681526020019081526020016000206006015410610b5f578180610b5b906116dc565b9250505b8080610b6a906116dc565b915050610abc565b5060008167ffffffffffffffff811115610b8f57610b8e6111dc565b5b604051908082528060200260200182016040528015610bbd5781602001602082028036833780820191505090505b5090506000805b600280549050811015610d0657600360008060028481548110610bea57610be9611a4f565b5b9060005260206000200160009054906101000a900473ffffffffffffffffffffffffffffffffffffffff1673ffffffffffffffffffffffffffffffffffffffff1673ffffffffffffffffffffffffffffffffffffffff1681526020019081526020016000206006015410610cf35760028181548110610c6c57610c6b611a4f565b5b9060005260206000200160009054906101000a900473ffffffffffffffffffffffffffffffffffffffff16838381518110610caa57610ca9611a4f565b5b602002602001019073ffffffffffffffffffffffffffffffffffffffff16908173ffffffffffffffffffffffffffffffffffffffff16815250508180610cef906116dc565b9250505b8080610cfe906116dc565b915050610bc4565b5081935050505090565b6000600280549050905090565b600160003373ffffffffffffffffffffffffffffffffffffffff1673ffffffffffffffffffffffffffffffffffffffff16815260200190815260200160002060009054906101000a900460ff16610da9576040517f08c379a0000000000000000000000000000000000000000000000000000000008152600401610da0906115b5565b60405180910390fd5b6000803373ffffffffffffffffffffffffffffffffffffffff1673ffffffffffffffffffffffffffffffffffffffff16815260200190815260200160002060050160009054906101000a900460ff16610e37576040517f08c379a0000000000000000000000000000000000000000000000000000000008152600401610e2e90611aca565b60405180910390fd5b60008060003373ffffffffffffffffffffffffffffffffffffffff1673ffffffffffffffffffffffffffffffffffffffff168152602001908152602001600020905083816000019081610e8a919061197d565b508281600101819055508181600201819055504281600401819055503373ffffffffffffffffffffffffffffffffffffffff167fe3c3b047c6754e5990677f61c6497dfc04509516130e45411d22e3b89ba31ec842604051610eec9190611456565b60405180910390a250505050565b60016020528060005260406000206000915054906101000a900460ff1681565b6000604051905090565b600080fd5b600080fd5b600073ffffffffffffffffffffffffffffffffffffffff82169050919050565b6000610f5982610f2e565b9050919050565b610f6981610f4e565b8114610f7457600080fd5b50565b600081359050610f8681610f60565b92915050565b600060208284031215610fa257610fa1610f24565b5b6000610fb084828501610f77565b91505092915050565b600081519050919050565b600082825260208201905092915050565b60005b83811015610ff3578082015181840152602081019050610fd8565b60008484015250505050565b6000601f19601f8301169050919050565b600061101b82610fb9565b6110258185610fc4565b9350611035818560208601610fd5565b61103e81610fff565b840191505092915050565b6000819050919050565b61105c81611049565b82525050565b6000819050919050565b61107581611062565b82525050565b60008115159050919050565b6110908161107b565b82525050565b600060a08201905081810360008301526110b08188611010565b90506110bf6020830187611053565b6110cc6040830186611053565b6110d9606083018561106c565b6110e66080830184611087565b9695505050505050565b6110f981611049565b811461110457600080fd5b50565b600081359050611116816110f0565b92915050565b6000806040838503121561113357611132610f24565b5b600061114185828601610f77565b925050602061115285828601611107565b9150509250929050565b600060e0820190508181036000830152611176818a611010565b90506111856020830189611053565b6111926040830188611053565b61119f606083018761106c565b6111ac608083018661106c565b6111b960a0830185611087565b6111c660c083018461106c565b98975050505050505050565b600080fd5b600080fd5b7f4e487b7100000000000000000000000000000000000000000000000000000000600052604160045260246000fd5b61121482610fff565b810181811067ffffffffffffffff82111715611233576112326111dc565b5b80604052505050565b6000611246610f1a565b9050611252828261120b565b919050565b600067ffffffffffffffff821115611272576112716111dc565b5b61127b82610fff565b9050602081019050919050565b82818337600083830152505050565b60006112aa6112a584611257565b61123c565b9050828152602081018484840111156112c6576112c56111d7565b5b6112d1848285611288565b509392505050565b600082601f8301126112ee576112ed6111d2565b5b81356112fe848260208601611297565b91505092915050565b6000806000606084860312156113205761131f610f24565b5b600084013567ffffffffffffffff81111561133e5761133d610f29565b5b61134a868287016112d9565b935050602061135b86828701611107565b925050604061136c86828701611107565b9150509250925092565b600081519050919050565b600082825260208201905092915050565b6000819050602082019050919050565b6113ab81610f4e565b82525050565b60006113bd83836113a2565b60208301905092915050565b6000602082019050919050565b60006113e182611376565b6113eb8185611381565b93506113f683611392565b8060005b8381101561142757815161140e88826113b1565b9750611419836113c9565b9250506001810190506113fa565b5085935050505092915050565b6000602082019050818103600083015261144e81846113d6565b905092915050565b600060208201905061146b600083018461106c565b92915050565b60006020820190506114866000830184611087565b92915050565b600082825260208201905092915050565b7f55736572206e6f74207265676973746572656400000000000000000000000000600082015250565b60006114d360138361148c565b91506114de8261149d565b602082019050919050565b60006020820190508181036000830152611502816114c6565b9050919050565b7f4e487b7100000000000000000000000000000000000000000000000000000000600052602260045260246000fd5b6000600282049050600182168061155057607f821691505b60208210810361156357611562611509565b5b50919050565b7f4e6f742072656769737465726564000000000000000000000000000000000000600082015250565b600061159f600e8361148c565b91506115aa82611569565b602082019050919050565b600060208201905081810360008301526115ce81611592565b9050919050565b7f566f69636520616c7265616479207265766f6b65640000000000000000000000600082015250565b600061160b60158361148c565b9150611616826115d5565b602082019050919050565b6000602082019050818103600083015261163a816115fe565b9050919050565b7f53757370656374206e6f74207265676973746572656400000000000000000000600082015250565b600061167760168361148c565b915061168282611641565b602082019050919050565b600060208201905081810360008301526116a68161166a565b9050919050565b7f4e487b7100000000000000000000000000000000000000000000000000000000600052601160045260246000fd5b60006116e782611062565b91507fffffffffffffffffffffffffffffffffffffffffffffffffffffffffffffffff8203611719576117186116ad565b5b600182019050919050565b60006020820190506117396000830184611053565b92915050565b7f566f69636520616c7265616479207265676973746572656420616e642061637460008201527f6976650000000000000000000000000000000000000000000000000000000000602082015250565b600061179b60238361148c565b91506117a68261173f565b604082019050919050565b600060208201905081810360008301526117ca8161178e565b9050919050565b60008190508160005260206000209050919050565b60006020601f8301049050919050565b600082821b905092915050565b6000600883026118337fffffffffffffffffffffffffffffffffffffffffffffffffffffffffffffffff826117f6565b61183d86836117f6565b95508019841693508086168417925050509392505050565b6000819050919050565b600061187a61187561187084611062565b611855565b611062565b9050919050565b6000819050919050565b6118948361185f565b6118a86118a082611881565b848454611803565b825550505050565b600090565b6118bd6118b0565b6118c881848461188b565b505050565b5b818110156118ec576118e16000826118b5565b6001810190506118ce565b5050565b601f82111561193157611902816117d1565b61190b846117e6565b8101602085101561191a578190505b61192e611926856117e6565b8301826118cd565b50505b505050565b600082821c905092915050565b600061195460001984600802611936565b1980831691505092915050565b600061196d8383611943565b9150826002028217905092915050565b61198682610fb9565b67ffffffffffffffff81111561199f5761199e6111dc565b5b6119a98254611538565b6119b48282856118f0565b600060209050601f8311600181146119e757600084156119d5578287015190505b6119df8582611961565b865550611a47565b601f1984166119f5866117d1565b60005b82811015611a1d578489015182556001820191506020850194506020810190506119f8565b86831015611a3a5784890151611a36601f891682611943565b8355505b6001600288020188555050505b505050505050565b7f4e487b7100000000000000000000000000000000000000000000000000000000600052603260045260246000fd5b7f566f696365206973207265766f6b656400000000000000000000000000000000600082015250565b6000611ab460108361148c565b9150611abf82611a7e565b602082019050919050565b60006020820190508181036000830152611ae381611aa7565b905091905056fea2646970667358221220637f0aa54ce2ad45c809dc3622f247bc0c93e54e0bae5e2855adf4f4befa056564736f6c63430008140033",
  "linkReferences": {},
  "deployedLinkReferences": {}
}