{
  "_format": "hh-sol-artifact-1",
  "contractName": "VoiceIDSBT",
  "sourceName": "contracts/VoiceIDSBT.sol",
  "abi": [
    {
      "inputs": [
        {
          "internalType": "string",
          "name": "name",
          "type": "string"
        },
        {
          "internalType": "string",
          "name": "symbol",
          "type": "string"
        },
        {
          "internalType": "address",
          "name": "_vaultAddress",
          "type": "address"
        }
      ],
      "stateMutability": "nonpayable",
      "type": "constructor"
    },
    {
      "inputs": [],
      "name": "OnlyDeployer",
      "type": "error"
    },
    {
      "inputs": [],
      "name": "OnlyVault",
      "type": "error"
    },
    {
      "inputs": [],
      "name": "TransferNotAllowed",
      "type": "error"
    },
    {
      "inputs": [],
      "name": "VaultAddressAlreadySet",
      "type": "error"
    },
    {
      "anonymous": false,
      "inputs": [
        {
          "indexed": true,
          "internalType": "address",
          "name": "owner",
          "type": "address"
        },
        {
          "indexed": true,
          "internalType": "address",
          "name": "approved",
          "type": "address"
        },
        {
          "indexed": true,
          "internalType": "uint256",
          "name": "tokenId",
          "type": "uint256"
        }
      ],
      "name": "Approval",
      "type": "event"
    },
    {
      "anonymous": false,
      "inputs": [
        {
          "indexed": true,
          "internalType": "address",
          "name": "owner",
          "type": "address"
        },
        {
          "indexed": true,
          "internalType": "address",
          "name": "operator",
          "type": "address"
        },
        {
          "indexed": false,
          "internalType": "bool",
          "name": "approved",
          "type": "bool"
        }
      ],
      "name": "ApprovalForAll",
      "type": "event"
    },
    {
      "anonymous": false,
      "inputs": [
        {
          "indexed": true,
          "internalType": "address",
          "name": "from",
          "type": "address"
        },
        {
          "indexed": true,
          "internalType": "address",
          "name": "to",
          "type": "address"
        },
        {
          "indexed": true,
          "internalType": "uint256",
          "name": "tokenId",
          "type": "uint256"
        }
      ],
      "name": "Transfer",
      "type": "event"
    },
    {
      "inputs": [
        {
          "internalType": "address",
          "name": "",
          "type": "address"
        }
      ],
      "name": "addressToTokenId",
      "outputs": [
        {
          "internalType": "uint256",
          "name": "",
          "type": "uint256"
        }
      ],
      "stateMutability": "view",
      "type": "function"
    },
    {
      "inputs": [
        {
          "internalType": "address",
          "name": "to",
          "type": "address"
        },
        {
          "internalType": "uint256",
          "name": "tokenId",
          "type": "uint256"
        }
      ],
      "name": "approve",
      "outputs": [],
      "stateMutability": "nonpayable",
      "type": "function"
    },
    {
      "inputs": [
        {
          "internalType": "address",
          "name": "owner",
          "type": "address"
        }
      ],
      "name": "balanceOf",
      "outputs": [
        {
          "internalType": "uint256",
          "name": "",
          "type": "uint256"
        }
      ],
      "stateMutability": "view",
      "type": "function"
    },
    {
      "inputs": [
        {
          "internalType": "uint256",
          "name": "tokenId",
          "type": "uint256"
        }
      ],
      "name": "burn",
      "outputs": [],
      "stateMutability": "nonpayable",
      "type": "function"
    },
    {
      "inputs": [
        {
          "internalType": "uint256",
          "name": "tokenId",
          "type": "uint256"
        }
      ],
      "name": "getApproved",
      "outputs": [
        {
          "internalType": "address",
          "name": "",
          "type": "address"
        }
      ],
      "stateMutability": "view",
      "type": "function"
    },
    {
      "inputs": [],
      "name": "getNextTokenId",
      "outputs": [
        {
          "internalType": "uint256",
          "name": "",
          "type": "uint256"
        }
      ],
      "stateMutability": "view",
      "type": "function"
    },
    {
      "inputs": [
        {
          "internalType": "address",
          "name": "owner",
          "type": "address"
        },
        {
          "internalType": "address",
          "name": "operator",
          "type": "address"
        }
      ],
      "name": "isApprovedForAll",
      "outputs": [
        {
          "internalType": "bool",
          "name": "",
          "type": "bool"
        }
      ],
      "stateMutability": "view",
      "type": "function"
    },
    {
      "inputs": [
        {
          "internalType": "address",
          "name": "to",
          "type": "address"
        },
        {
          "internalType": "uint256",
          "name": "tokenId",
          "type": "uint256"
        }
      ],
      "name": "mint",
      "outputs": [],
      "stateMutability": "nonpayable",
      "type": "function"
    },
    {
      "inputs": [
        {
          "internalType": "address",
          "name": "to",
          "type": "address"
        }
      ],
      "name": "mintAuto",
      "outputs": [
        {
          "internalType": "uint256",
          "name": "",
          "type": "uint256"
        }
      ],
      "stateMutability": "nonpayable",
      "type": "function"
    },
    {
      "inputs": [],
      "name": "name",
      "outputs": [
        {
          "internalType": "string",
          "name": "",
          "type": "string"
        }
      ],
      "stateMutability": "view",
      "type": "function"
    },
    {
      "inputs": [
        {
          "internalType": "uint256",
          "name": "tokenId",
          "type": "uint256"
        }
      ],
      "name": "ownerOf",
      "outputs": [
        {
          "internalType": "address",
          "name": "",
          "type": "address"
        }
      ],
      "stateMutability": "view",
      "type": "function"
    },
    {
      "inputs": [
        {
          "internalType": "address",
          "name": "from",
          "type": "address"
        },
        {
          "internalType": "address",
          "name": "to",
          "type": "address"
        },
        {
          "internalType": "uint256",
          "name": "tokenId",
          "type": "uint256"
        }
      ],
      "name": "safeTransferFrom",
      "outputs": [],
      "stateMutability": "nonpayable",
      "type": "function"
    },
    {
      "inputs": [
        {
          "internalType": "address",
          "name": "from",
          "type": "address"
        },
        {
          "internalType": "address",
          "name": "to",
          "type": "address"
        },
        {
          "internalType": "uint256",
          "name": "tokenId",
          "type": "uint256"
        },
        {
          "internalType": "bytes",
          "name": "data",
          "type": "bytes"
        }
      ],
      "name": "safeTransferFrom",
      "outputs": [],
      "stateMutability": "nonpayable",
      "type": "function"
    },
    {
      "inputs": [
        {
          "internalType": "address",
          "name": "operator",
          "type": "address"
        },
        {
          "internalType": "bool",
          "name": "approved",
          "type": "bool"
        }
      ],
      "name": "setApprovalForAll",
      "outputs": [],
      "stateMutability": "nonpayable",
      "type": "function"
    },
    {
      "inputs": [
        {
          "internalType": "address",
          "name": "_addr",
          "type": "address"
        }
      ],
      "name": "setVaultAddress",
      "outputs": [],
      "stateMutability": "nonpayable",
      "type": "function"
    },
    {
      "inputs": [
        {
          "internalType": "bytes4",
          "name": "interfaceId",
          "type": "bytes4"
        }
      ],
      "name": "supportsInterface",
      "outputs": [
        {
          "internalType": "bool",
          "name": "",
          "type": "bool"
        }
      ],
      "stateMutability": "view",
      "type": "function"
    },
    {
      "inputs": [],
      "name": "symbol",
      "outputs": [
        {
          "internalType": "string",
          "name": "",
          "type": "string"
        }
      ],
      "stateMutability": "view",
      "type": "function"
    },
    {
      "inputs": [
        {
          "internalType": "uint256",
          "name": "tokenId",
          "type": "uint256"
        }
      ],
      "name": "tokenURI",
      "outputs": [
        {
          "internalType": "string",
          "name": "",
          "type": "string"
        }
      ],
      "stateMutability": "view",
      "type": "function"
    },
    {
      "inputs": [
        {
          "internalType": "address",
          "name": "from",
          "type": "address"
        },
        {
          "internalType": "address",
          "name": "to",
          "type": "address"
        },
        {
          "internalType": "uint256",
          "name": "tokenId",
          "type": "uint256"
        }
      ],
      "name": "transferFrom",
      "outputs": [],
      "stateMutability": "nonpayable",
      "type": "function"
    },
    {
      "inputs": [],
      "name": "vaultAddress",
      "outputs": [
        {
          "internalType": "address",
          "name": "",
          "type": "address"
        }
      ],
      "stateMutability": "view",
      "type": "function"
    }
  ],
  "bytecode": "0x60a060405260016008553480156200001657600080fd5b50604051620038af380380620038af83398181016040528101906200003c91906200032b565b828281600090816200004f919062000610565b50806001908162000061919062000610565b5050503373ffffffffffffffffffffffffffffffffffffffff1660808173ffffffffffffffffffffffffffffffffffffffff1681525050600073ffffffffffffffffffffffffffffffffffffffff168173ffffffffffffffffffffffffffffffffffffffff16146200012a5780600660006101000a81548173ffffffffffffffffffffffffffffffffffffffff021916908373ffffffffffffffffffffffffffffffffffffffff1602179055506001600660146101000a81548160ff0219169083151502179055505b505050620006f7565b6000604051905090565b600080fd5b600080fd5b600080fd5b600080fd5b6000601f19601f8301169050919050565b7f4e487b7100000000000000000000000000000000000000000000000000000000600052604160045260246000fd5b6200019c8262000151565b810181811067ffffffffffffffff82111715620001be57620001bd62000162565b5b80604052505050565b6000620001d362000133565b9050620001e1828262000191565b919050565b600067ffffffffffffffff82111562000204576200020362000162565b5b6200020f8262000151565b9050602081019050919050565b60005b838110156200023c5780820151818401526020810190506200021f565b60008484015250505050565b60006200025f6200025984620001e6565b620001c7565b9050828152602081018484840111156200027e576200027d6200014c565b5b6200028b8482856200021c565b509392505050565b600082601f830112620002ab57620002aa62000147565b5b8151620002bd84826020860162000248565b91505092915050565b600073ffffffffffffffffffffffffffffffffffffffff82169050919050565b6000620002f382620002c6565b9050919050565b6200030581620002e6565b81146200031157600080fd5b50565b6000815190506200032581620002fa565b92915050565b6000806000606084860312156200034757620003466200013d565b5b600084015167ffffffffffffffff81111562000368576200036762000142565b5b620003768682870162000293565b935050602084015167ffffffffffffffff8111156200039a576200039962000142565b5b620003a88682870162000293565b9250506040620003bb8682870162000314565b9150509250925092565b600081519050919050565b7f4e487b7100000000000000000000000000000000000000000000000000000000600052602260045260246000fd5b600060028204905060018216806200041857607f821691505b6020821081036200042e576200042d620003d0565b5b50919050565b60008190508160005260206000209050919050565b60006020601f8301049050919050565b600082821b905092915050565b600060088302620004987fffffffffffffffffffffffffffffffffffffffffffffffffffffffffffffffff8262000459565b620004a4868362000459565b95508019841693508086168417925050509392505050565b6000819050919050565b6000819050919050565b6000620004f1620004eb620004e584620004bc565b620004c6565b620004bc565b9050919050565b6000819050919050565b6200050d83620004d0565b620005256200051c82620004f8565b84845462000466565b825550505050565b600090565b6200053c6200052d565b6200054981848462000502565b505050565b5b8181101562000571576200056560008262000532565b6001810190506200054f565b5050565b601f821115620005c0576200058a8162000434565b620005958462000449565b81016020851015620005a5578190505b620005bd620005b48562000449565b8301826200054e565b50505b505050565b600082821c905092915050565b6000620005e560001984600802620005c5565b1980831691505092915050565b6000620006008383620005d2565b9150826002028217905092915050565b6200061b82620003c5565b67ffffffffffffffff81111562000637576200063662000162565b5b620006438254620003ff565b6200065082828562000575565b600060209050601f83116001811462000688576000841562000673578287015190505b6200067f8582620005f2565b865550620006ef565b601f198416620006988662000434565b60005b82811015620006c2578489015182556001820191506020850194506020810190506200069b565b86831015620006e25784890151620006de601f891682620005d2565b8355505b6001600288020188555050505b505050505050565b60805161319c620007136000396000610b8f015261319c6000f3fe608060405234801561001057600080fd5b506004361061012c5760003560e01c80636352211e116100ad578063a22cb46511610071578063a22cb46514610353578063b88d4fde1461036f578063c87b56dd1461038b578063caa0f92a146103bb578063e985e9c5146103d95761012c565b80636352211e146102895780636511bf2e146102b957806370a08231146102e957806385535cc51461031957806395d89b41146103355761012c565b806340c10f19116100f457806340c10f19146101e757806342842e0e1461020357806342966c681461021f578063430bf08a1461023b5780634a6280cb146102595761012c565b806301ffc9a71461013157806306fdde0314610161578063081812fc1461017f578063095ea7b3146101af57806323b872dd146101cb575b600080fd5b61014b6004803603810190610146919061205d565b610409565b60405161015891906120a5565b60405180910390f35b6101696104eb565b6040516101769190612150565b60405180910390f35b610199600480360381019061019491906121a8565b61057d565b6040516101a69190612216565b60405180910390f35b6101c960048036038101906101c4919061225d565b6105c3565b005b6101e560048036038101906101e0919061229d565b6106da565b005b61020160048036038101906101fc919061225d565b61073a565b005b61021d6004803603810190610218919061229d565b610813565b005b610239600480360381019061023491906121a8565b610833565b005b610243610917565b6040516102509190612216565b60405180910390f35b610273600480360381019061026e91906122f0565b61093d565b604051610280919061232c565b60405180910390f35b6102a3600480360381019061029e91906121a8565b610a38565b6040516102b09190612216565b60405180910390f35b6102d360048036038101906102ce91906122f0565b610abe565b6040516102e0919061232c565b60405180910390f35b61030360048036038101906102fe91906122f0565b610ad6565b604051610310919061232c565b60405180910390f35b610333600480360381019061032e91906122f0565b610b8d565b005b61033d610cb8565b60405161034a9190612150565b60405180910390f35b61036d60048036038101906103689190612373565b610d4a565b005b610389600480360381019061038491906124e8565b610d60565b005b6103a560048036038101906103a091906121a8565b610dc2565b6040516103b29190612150565b60405180910390f35b6103c3610e29565b6040516103d0919061232c565b60405180910390f35b6103f360048036038101906103ee919061256b565b610e33565b60405161040091906120a5565b60405180910390f35b60007f80ac58cd000000000000000000000000000000000000000000000000000000007bffffffffffffffffffffffffffffffffffffffffffffffffffffffff1916827bffffffffffffffffffffffffffffffffffffffffffffffffffffffff191614806104d457507f5b5e139f000000000000000000000000000000000000000000000000000000007bffffffffffffffffffffffffffffffffffffffffffffffffffffffff1916827bffffffffffffffffffffffffffffffffffffffffffffffffffffffff1916145b806104e457506104e382610ec7565b5b9050919050565b6060600080546104fa906125da565b80601f0160208091040260200160405190810160405280929190818152602001828054610526906125da565b80156105735780601f1061054857610100808354040283529160200191610573565b820191906000526020600020905b81548152906001019060200180831161055657829003601f168201915b5050505050905090565b600061058882610f31565b6004600083815260200190815260200160002060009054906101000a900473ffffffffffffffffffffffffffffffffffffffff169050919050565b60006105ce82610a38565b90508073ffffffffffffffffffffffffffffffffffffffff168373ffffffffffffffffffffffffffffffffffffffff160361063e576040517f08c379a00000000000000000000000000000000000000000000000000000000081526004016106359061267d565b60405180910390fd5b8073ffffffffffffffffffffffffffffffffffffffff1661065d610f7c565b73ffffffffffffffffffffffffffffffffffffffff16148061068c575061068b81610686610f7c565b610e33565b5b6106cb576040517f08c379a00000000000000000000000000000000000000000000000000000000081526004016106c29061270f565b60405180910390fd5b6106d58383610f84565b505050565b6106eb6106e5610f7c565b8261103d565b61072a576040517f08c379a0000000000000000000000000000000000000000000000000000000008152600401610721906127a1565b60405180910390fd5b6107358383836110d2565b505050565b600660009054906101000a900473ffffffffffffffffffffffffffffffffffffffff1673ffffffffffffffffffffffffffffffffffffffff163373ffffffffffffffffffffffffffffffffffffffff16146107c1576040517f8d1af8bd00000000000000000000000000000000000000000000000000000000815260040160405180910390fd5b80600760008473ffffffffffffffffffffffffffffffffffffffff1673ffffffffffffffffffffffffffffffffffffffff1681526020019081526020016000208190555061080f82826113cb565b5050565b61082e83838360405180602001604052806000815250610d60565b505050565b600660009054906101000a900473ffffffffffffffffffffffffffffffffffffffff1673ffffffffffffffffffffffffffffffffffffffff163373ffffffffffffffffffffffffffffffffffffffff16146108ba576040517f8d1af8bd00000000000000000000000000000000000000000000000000000000815260040160405180910390fd5b60006108c582610a38565b9050600760008273ffffffffffffffffffffffffffffffffffffffff1673ffffffffffffffffffffffffffffffffffffffff16815260200190815260200160002060009055610913826113e9565b5050565b600660009054906101000a900473ffffffffffffffffffffffffffffffffffffffff1681565b6000600660009054906101000a900473ffffffffffffffffffffffffffffffffffffffff1673ffffffffffffffffffffffffffffffffffffffff163373ffffffffffffffffffffffffffffffffffffffff16146109c6576040517f8d1af8bd00000000000000000000000000000000000000000000000000000000815260040160405180910390fd5b6000600860008154809291906109db906127f0565b91905055905080600760008573ffffffffffffffffffffffffffffffffffffffff1673ffffffffffffffffffffffffffffffffffffffff16815260200190815260200160002081905550610a2f83826113cb565b80915050919050565b600080610a4483611537565b9050600073ffffffffffffffffffffffffffffffffffffffff168173ffffffffffffffffffffffffffffffffffffffff1603610ab5576040517f08c379a0000000000000000000000000000000000000000000000000000000008152600401610aac90612884565b60405180910390fd5b80915050919050565b60076020528060005260406000206000915090505481565b60008073ffffffffffffffffffffffffffffffffffffffff168273ffffffffffffffffffffffffffffffffffffffff1603610b46576040517f08c379a0000000000000000000000000000000000000000000000000000000008152600401610b3d90612916565b60405180910390fd5b600360008373ffffffffffffffffffffffffffffffffffffffff1673ffffffffffffffffffffffffffffffffffffffff168152602001908152602001600020549050919050565b7f000000000000000000000000000000000000000000000000000000000000000073ffffffffffffffffffffffffffffffffffffffff163373ffffffffffffffffffffffffffffffffffffffff1614610c12576040517f618bbdd500000000000000000000000000000000000000000000000000000000815260040160405180910390fd5b600660149054906101000a900460ff1615610c59576040517f5f99e88c00000000000000000000000000000000000000000000000000000000815260040160405180910390fd5b80600660006101000a81548173ffffffffffffffffffffffffffffffffffffffff021916908373ffffffffffffffffffffffffffffffffffffffff1602179055506001600660146101000a81548160ff02191690831515021790555050565b606060018054610cc7906125da565b80601f0160208091040260200160405190810160405280929190818152602001828054610cf3906125da565b8015610d405780601f10610d1557610100808354040283529160200191610d40565b820191906000526020600020905b815481529060010190602001808311610d2357829003601f168201915b5050505050905090565b610d5c610d55610f7c565b8383611574565b5050565b610d71610d6b610f7c565b8361103d565b610db0576040517f08c379a0000000000000000000000000000000000000000000000000000000008152600401610da7906127a1565b60405180910390fd5b610dbc848484846116e0565b50505050565b6060610dcd82610f31565b6000610dd88361173c565b604051602001610de89190612bac565b6040516020818303038152906040529050610e028161180a565b604051602001610e129190612c51565b604051602081830303815290604052915050919050565b6000600854905090565b6000600560008473ffffffffffffffffffffffffffffffffffffffff1673ffffffffffffffffffffffffffffffffffffffff16815260200190815260200160002060008373ffffffffffffffffffffffffffffffffffffffff1673ffffffffffffffffffffffffffffffffffffffff16815260200190815260200160002060009054906101000a900460ff16905092915050565b60007f01ffc9a7000000000000000000000000000000000000000000000000000000007bffffffffffffffffffffffffffffffffffffffffffffffffffffffff1916827bffffffffffffffffffffffffffffffffffffffffffffffffffffffff1916149050919050565b610f3a8161197c565b610f79576040517f08c379a0000000000000000000000000000000000000000000000000000000008152600401610f7090612884565b60405180910390fd5b50565b600033905090565b816004600083815260200190815260200160002060006101000a81548173ffffffffffffffffffffffffffffffffffffffff021916908373ffffffffffffffffffffffffffffffffffffffff160217905550808273ffffffffffffffffffffffffffffffffffffffff16610ff783610a38565b73ffffffffffffffffffffffffffffffffffffffff167f8c5be1e5ebec7d5bd14f71427d1e84f3dd0314c0f7b2291e5b200ac8c7c3b92560405160405180910390a45050565b60008061104983610a38565b90508073ffffffffffffffffffffffffffffffffffffffff168473ffffffffffffffffffffffffffffffffffffffff16148061108b575061108a8185610e33565b5b806110c957508373ffffffffffffffffffffffffffffffffffffffff166110b18461057d565b73ffffffffffffffffffffffffffffffffffffffff16145b91505092915050565b8273ffffffffffffffffffffffffffffffffffffffff166110f282610a38565b73ffffffffffffffffffffffffffffffffffffffff1614611148576040517f08c379a000000000000000000000000000000000000000000000000000000000815260040161113f90612ce5565b60405180910390fd5b600073ffffffffffffffffffffffffffffffffffffffff168273ffffffffffffffffffffffffffffffffffffffff16036111b7576040517f08c379a00000000000000000000000000000000000000000000000000000000081526004016111ae90612d77565b60405180910390fd5b6111c483838360016119bd565b8273ffffffffffffffffffffffffffffffffffffffff166111e482610a38565b73ffffffffffffffffffffffffffffffffffffffff161461123a576040517f08c379a000000000000000000000000000000000000000000000000000000000815260040161123190612ce5565b60405180910390fd5b6004600082815260200190815260200160002060006101000a81549073ffffffffffffffffffffffffffffffffffffffff02191690556001600360008573ffffffffffffffffffffffffffffffffffffffff1673ffffffffffffffffffffffffffffffffffffffff168152602001908152602001600020600082825403925050819055506001600360008473ffffffffffffffffffffffffffffffffffffffff1673ffffffffffffffffffffffffffffffffffffffff16815260200190815260200160002060008282540192505081905550816002600083815260200190815260200160002060006101000a81548173ffffffffffffffffffffffffffffffffffffffff021916908373ffffffffffffffffffffffffffffffffffffffff160217905550808273ffffffffffffffffffffffffffffffffffffffff168473ffffffffffffffffffffffffffffffffffffffff167fddf252ad1be2c89b69c2b068fc378daa952ba7f163c4a11628f55a4df523b3ef60405160405180910390a46113c68383836001611a70565b505050565b6113e5828260405180602001604052806000815250611a76565b5050565b60006113f482610a38565b90506114048160008460016119bd565b61140d82610a38565b90506004600083815260200190815260200160002060006101000a81549073ffffffffffffffffffffffffffffffffffffffff02191690556001600360008373ffffffffffffffffffffffffffffffffffffffff1673ffffffffffffffffffffffffffffffffffffffff168152602001908152602001600020600082825403925050819055506002600083815260200190815260200160002060006101000a81549073ffffffffffffffffffffffffffffffffffffffff021916905581600073ffffffffffffffffffffffffffffffffffffffff168273ffffffffffffffffffffffffffffffffffffffff167fddf252ad1be2c89b69c2b068fc378daa952ba7f163c4a11628f55a4df523b3ef60405160405180910390a4611533816000846001611a70565b5050565b60006002600083815260200190815260200160002060009054906101000a900473ffffffffffffffffffffffffffffffffffffffff169050919050565b8173ffffffffffffffffffffffffffffffffffffffff168373ffffffffffffffffffffffffffffffffffffffff16036115e2576040517f08c379a00000000000000000000000000000000000000000000000000000000081526004016115d990612de3565b60405180910390fd5b80600560008573ffffffffffffffffffffffffffffffffffffffff1673ffffffffffffffffffffffffffffffffffffffff16815260200190815260200160002060008473ffffffffffffffffffffffffffffffffffffffff1673ffffffffffffffffffffffffffffffffffffffff16815260200190815260200160002060006101000a81548160ff0219169083151502179055508173ffffffffffffffffffffffffffffffffffffffff168373ffffffffffffffffffffffffffffffffffffffff167f17307eab39ab6107e8899845ad3d59bd9653f200f220920489ca2b5937696c31836040516116d391906120a5565b60405180910390a3505050565b6116eb8484846110d2565b6116f784848484611ad1565b611736576040517f08c379a000000000000000000000000000000000000000000000000000000000815260040161172d90612e75565b60405180910390fd5b50505050565b60606000600161174b84611c58565b01905060008167ffffffffffffffff81111561176a576117696123bd565b5b6040519080825280601f01601f19166020018201604052801561179c5781602001600182028036833780820191505090505b509050600082602001820190505b6001156117ff578080600190039150507f3031323334353637383961626364656600000000000000000000000000000000600a86061a8153600a85816117f3576117f2612e95565b5b049450600085036117aa575b819350505050919050565b6060600082510361182c57604051806020016040528060008152509050611977565b6000604051806060016040528060408152602001613127604091399050600060036002855161185b9190612ec4565b6118659190612ef8565b60046118719190612f29565b67ffffffffffffffff81111561188a576118896123bd565b5b6040519080825280601f01601f1916602001820160405280156118bc5781602001600182028036833780820191505090505b50905060018201602082018586518701602081018051600082525b82841015611932576003840193508351603f8160121c168701518653600186019550603f81600c1c168701518653600186019550603f8160061c168701518653600186019550603f81168701518653600186019550506118d7565b80825260038a51066001811461194f57600281146119625761196a565b603d6001870353603d600287035361196a565b603d60018703535b5050505050505080925050505b919050565b60008073ffffffffffffffffffffffffffffffffffffffff1661199e83611537565b73ffffffffffffffffffffffffffffffffffffffff1614159050919050565b6119c984848484611dab565b600073ffffffffffffffffffffffffffffffffffffffff168473ffffffffffffffffffffffffffffffffffffffff1614158015611a335750600073ffffffffffffffffffffffffffffffffffffffff168373ffffffffffffffffffffffffffffffffffffffff1614155b15611a6a576040517f8cd22d1900000000000000000000000000000000000000000000000000000000815260040160405180910390fd5b50505050565b50505050565b611a808383611db1565b611a8d6000848484611ad1565b611acc576040517f08c379a0000000000000000000000000000000000000000000000000000000008152600401611ac390612e75565b60405180910390fd5b505050565b6000611af28473ffffffffffffffffffffffffffffffffffffffff16611fce565b15611c4b578373ffffffffffffffffffffffffffffffffffffffff1663150b7a02611b1b610f7c565b8786866040518563ffffffff1660e01b8152600401611b3d9493929190612fc0565b6020604051808303816000875af1925050508015611b7957506040513d601f19601f82011682018060405250810190611b769190613021565b60015b611bfb573d8060008114611ba9576040519150601f19603f3d011682016040523d82523d6000602084013e611bae565b606091505b506000815103611bf3576040517f08c379a0000000000000000000000000000000000000000000000000000000008152600401611bea90612e75565b60405180910390fd5b805181602001fd5b63150b7a0260e01b7bffffffffffffffffffffffffffffffffffffffffffffffffffffffff1916817bffffffffffffffffffffffffffffffffffffffffffffffffffffffff191614915050611c50565b600190505b949350505050565b600080600090507a184f03e93ff9f4daa797ed6e38ed64bf6a1f0100000000000000008310611cb6577a184f03e93ff9f4daa797ed6e38ed64bf6a1f0100000000000000008381611cac57611cab612e95565b5b0492506040810190505b6d04ee2d6d415b85acef81000000008310611cf3576d04ee2d6d415b85acef81000000008381611ce957611ce8612e95565b5b0492506020810190505b662386f26fc100008310611d2257662386f26fc100008381611d1857611d17612e95565b5b0492506010810190505b6305f5e1008310611d4b576305f5e1008381611d4157611d40612e95565b5b0492506008810190505b6127108310611d70576127108381611d6657611d65612e95565b5b0492506004810190505b60648310611d935760648381611d8957611d88612e95565b5b0492506002810190505b600a8310611da2576001810190505b80915050919050565b50505050565b600073ffffffffffffffffffffffffffffffffffffffff168273ffffffffffffffffffffffffffffffffffffffff1603611e20576040517f08c379a0000000000000000000000000000000000000000000000000000000008152600401611e179061309a565b60405180910390fd5b611e298161197c565b15611e69576040517f08c379a0000000000000000000000000000000000000000000000000000000008152600401611e6090613106565b60405180910390fd5b611e776000838360016119bd565b611e808161197c565b15611ec0576040517f08c379a0000000000000000000000000000000000000000000000000000000008152600401611eb790613106565b60405180910390fd5b6001600360008473ffffffffffffffffffffffffffffffffffffffff1673ffffffffffffffffffffffffffffffffffffffff16815260200190815260200160002060008282540192505081905550816002600083815260200190815260200160002060006101000a81548173ffffffffffffffffffffffffffffffffffffffff021916908373ffffffffffffffffffffffffffffffffffffffff160217905550808273ffffffffffffffffffffffffffffffffffffffff16600073ffffffffffffffffffffffffffffffffffffffff167fddf252ad1be2c89b69c2b068fc378daa952ba7f163c4a11628f55a4df523b3ef60405160405180910390a4611fca600083836001611a70565b5050565b6000808273ffffffffffffffffffffffffffffffffffffffff163b119050919050565b6000604051905090565b600080fd5b600080fd5b60007fffffffff0000000000000000000000000000000000000000000000000000000082169050919050565b61203a81612005565b811461204557600080fd5b50565b60008135905061205781612031565b92915050565b60006020828403121561207357612072611ffb565b5b600061208184828501612048565b91505092915050565b60008115159050919050565b61209f8161208a565b82525050565b60006020820190506120ba6000830184612096565b92915050565b600081519050919050565b600082825260208201905092915050565b60005b838110156120fa5780820151818401526020810190506120df565b60008484015250505050565b6000601f19601f8301169050919050565b6000612122826120c0565b61212c81856120cb565b935061213c8185602086016120dc565b61214581612106565b840191505092915050565b6000602082019050818103600083015261216a8184612117565b905092915050565b6000819050919050565b61218581612172565b811461219057600080fd5b50565b6000813590506121a28161217c565b92915050565b6000602082840312156121be576121bd611ffb565b5b60006121cc84828501612193565b91505092915050565b600073ffffffffffffffffffffffffffffffffffffffff82169050919050565b6000612200826121d5565b9050919050565b612210816121f5565b82525050565b600060208201905061222b6000830184612207565b92915050565b61223a816121f5565b811461224557600080fd5b50565b60008135905061225781612231565b92915050565b6000806040838503121561227457612273611ffb565b5b600061228285828601612248565b925050602061229385828601612193565b9150509250929050565b6000806000606084860312156122b6576122b5611ffb565b5b60006122c486828701612248565b93505060206122d586828701612248565b92505060406122e686828701612193565b9150509250925092565b60006020828403121561230657612305611ffb565b5b600061231484828501612248565b91505092915050565b61232681612172565b82525050565b6000602082019050612341600083018461231d565b92915050565b6123508161208a565b811461235b57600080fd5b50565b60008135905061236d81612347565b92915050565b6000806040838503121561238a57612389611ffb565b5b600061239885828601612248565b92505060206123a98582860161235e565b9150509250929050565b600080fd5b600080fd5b7f4e487b7100000000000000000000000000000000000000000000000000000000600052604160045260246000fd5b6123f582612106565b810181811067ffffffffffffffff82111715612414576124136123bd565b5b80604052505050565b6000612427611ff1565b905061243382826123ec565b919050565b600067ffffffffffffffff821115612453576124526123bd565b5b61245c82612106565b9050602081019050919050565b82818337600083830152505050565b600061248b61248684612438565b61241d565b9050828152602081018484840111156124a7576124a66123b8565b5b6124b2848285612469565b509392505050565b600082601f8301126124cf576124ce6123b3565b5b81356124df848260208601612478565b91505092915050565b6000806000806080858703121561250257612501611ffb565b5b600061251087828801612248565b945050602061252187828801612248565b935050604061253287828801612193565b925050606085013567ffffffffffffffff81111561255357612552612000565b5b61255f878288016124ba565b91505092959194509250565b6000806040838503121561258257612581611ffb565b5b600061259085828601612248565b92505060206125a185828601612248565b9150509250929050565b7f4e487b7100000000000000000000000000000000000000000000000000000000600052602260045260246000fd5b600060028204905060018216806125f257607f821691505b602082108103612605576126046125ab565b5b50919050565b7f4552433732313a20617070726f76616c20746f2063757272656e74206f776e6560008201527f7200000000000000000000000000000000000000000000000000000000000000602082015250565b60006126676021836120cb565b91506126728261260b565b604082019050919050565b600060208201905081810360008301526126968161265a565b9050919050565b7f4552433732313a20617070726f76652063616c6c6572206973206e6f7420746f60008201527f6b656e206f776e6572206f7220617070726f76656420666f7220616c6c000000602082015250565b60006126f9603d836120cb565b91506127048261269d565b604082019050919050565b60006020820190508181036000830152612728816126ec565b9050919050565b7f4552433732313a2063616c6c6572206973206e6f7420746f6b656e206f776e6560008201527f72206f7220617070726f76656400000000000000000000000000000000000000602082015250565b600061278b602d836120cb565b91506127968261272f565b604082019050919050565b600060208201905081810360008301526127ba8161277e565b9050919050565b7f4e487b7100000000000000000000000000000000000000000000000000000000600052601160045260246000fd5b60006127fb82612172565b91507fffffffffffffffffffffffffffffffffffffffffffffffffffffffffffffffff820361282d5761282c6127c1565b5b600182019050919050565b7f4552433732313a20696e76616c696420746f6b656e2049440000000000000000600082015250565b600061286e6018836120cb565b915061287982612838565b602082019050919050565b6000602082019050818103600083015261289d81612861565b9050919050565b7f4552433732313a2061646472657373207a65726f206973206e6f74206120766160008201527f6c6964206f776e65720000000000000000000000000000000000000000000000602082015250565b60006129006029836120cb565b915061290b826128a4565b604082019050919050565b6000602082019050818103600083015261292f816128f3565b9050919050565b600081905092915050565b7f7b226e616d65223a22566f696365205661756c74204944202300000000000000600082015250565b6000612977601983612936565b915061298282612941565b601982019050919050565b6000612998826120c0565b6129a28185612936565b93506129b28185602086016120dc565b80840191505092915050565b7f222c226465736372697074696f6e223a22536f756c626f756e6420566f69636560008201527f204964656e7469747920546f6b656e222c000000000000000000000000000000602082015250565b6000612a1a603183612936565b9150612a25826129be565b603182019050919050565b7f2261747472696275746573223a5b000000000000000000000000000000000000600082015250565b6000612a66600e83612936565b9150612a7182612a30565b600e82019050919050565b7f7b2274726169745f74797065223a22537461747573222c2276616c7565223a2260008201527f416374697665227d2c0000000000000000000000000000000000000000000000602082015250565b6000612ad8602983612936565b9150612ae382612a7c565b602982019050919050565b7f7b2274726169745f74797065223a2250726f746f636f6c222c2276616c75652260008201527f3a22566f696365205661756c74207632227d0000000000000000000000000000602082015250565b6000612b4a603283612936565b9150612b5582612aee565b603282019050919050565b7f5d7d000000000000000000000000000000000000000000000000000000000000600082015250565b6000612b96600283612936565b9150612ba182612b60565b600282019050919050565b6000612bb78261296a565b9150612bc3828461298d565b9150612bce82612a0d565b9150612bd982612a59565b9150612be482612acb565b9150612bef82612b3d565b9150612bfa82612b89565b915081905092915050565b7f646174613a6170706c69636174696f6e2f6a736f6e3b6261736536342c000000600082015250565b6000612c3b601d83612936565b9150612c4682612c05565b601d82019050919050565b6000612c5c82612c2e565b9150612c68828461298d565b915081905092915050565b7f4552433732313a207472616e736665722066726f6d20696e636f72726563742060008201527f6f776e6572000000000000000000000000000000000000000000000000000000602082015250565b6000612ccf6025836120cb565b9150612cda82612c73565b604082019050919050565b60006020820190508181036000830152612cfe81612cc2565b9050919050565b7f4552433732313a207472616e7366657220746f20746865207a65726f2061646460008201527f7265737300000000000000000000000000000000000000000000000000000000602082015250565b6000612d616024836120cb565b9150612d6c82612d05565b604082019050919050565b60006020820190508181036000830152612d9081612d54565b9050919050565b7f4552433732313a20617070726f766520746f2063616c6c657200000000000000600082015250565b6000612dcd6019836120cb565b9150612dd882612d97565b602082019050919050565b60006020820190508181036000830152612dfc81612dc0565b9050919050565b7f4552433732313a207472616e7366657220746f206e6f6e20455243373231526560008201527f63656976657220696d706c656d656e7465720000000000000000000000000000602082015250565b6000612e5f6032836120cb565b9150612e6a82612e03565b604082019050919050565b60006020820190508181036000830152612e8e81612e52565b9050919050565b7f4e487b7100000000000000000000000000000000000000000000000000000000600052601260045260246000fd5b6000612ecf82612172565b9150612eda83612172565b9250828201905080821115612ef257612ef16127c1565b5b92915050565b6000612f0382612172565b9150612f0e83612172565b925082612f1e57612f1d612e95565b5b828204905092915050565b6000612f3482612172565b9150612f3f83612172565b9250828202612f4d81612172565b91508282048414831517612f6457612f636127c1565b5b5092915050565b600081519050919050565b600082825260208201905092915050565b6000612f9282612f6b565b612f9c8185612f76565b9350612fac8185602086016120dc565b612fb581612106565b840191505092915050565b6000608082019050612fd56000830187612207565b612fe26020830186612207565b612fef604083018561231d565b81810360608301526130018184612f87565b905095945050505050565b60008151905061301b81612031565b92915050565b60006020828403121561303757613036611ffb565b5b60006130458482850161300c565b91505092915050565b7f4552433732313a206d696e7420746f20746865207a65726f2061646472657373600082015250565b60006130846020836120cb565b915061308f8261304e565b602082019050919050565b600060208201905081810360008301526130b381613077565b9050919050565b7f4552433732313a20746f6b656e20616c7265616479206d696e74656400000000600082015250565b60006130f0601c836120cb565b91506130fb826130ba565b602082019050919050565b6000602082019050818103600083015261311f816130e3565b905091905056fe4142434445464748494a4b4c4d4e4f505152535455565758595a6162636465666768696a6b6c6d6e6f707172737475767778797a303132333435363738392b2fa2646970667358221220277ddfe117584f557874ea548a7aa206591de933c2f420044c7d98b985793ee064736f6c63430008140033",
  "linkReferences": {},
  "deployedLinkReferences": {}
}